:020000040800F2
:100000002059002041B10008D1050008D30500089F
:10001000D7050008DB050008DF0500080000000028
:10002000000000000000000000000000E3050008E0
:10003000E505000800000000CDFE00086DAF0008D7
:100040005BB100085BB100085BB1000807A30008C2
:100050005BB100085BB1000885A90008B3A90008DE
:100060005BB100085BB100085BB100085BB1000840
:100070005BB100085BB100085BB100085BB1000830
:100080005BB100085BB100085BB100085BB1000820
:100090005BB100085BB100085BB10008E1A9000892
:1000A0005BB100085BB100085BB100085BB1000800
:1000B00041AC0008ADAB0008F7AB00085BB100082D
:1000C0005BB100085BB100085BB100085BB10008E0
:1000D0005BB10008AFAC00086FAD000829AE0008A6
:1000E000A3AA0008E3A200085BB100085BB1000806
:1000F0005BB100085BB100085BB100085BB10008B0
:100100005BB100085BB1000881AC00085BB100087E
:100110005BB100085BB100085BB10008350800085E
:100120005BB100085BB100085BB100085BB100087F
:100130005BB100085BB100085BB100085BB100086F
:100140005BB100085BB100085BB100085BB100085F
:100150005BB100085BB100085BB100085BB100084F
:100160005BB100085BB100085BB100085BB100083F
:100170005BB100085BB100085BB100085BB100082F
:100180005BB100085BB1000800F002F800F03CF839
:100190000AA090E8000C82448344AAF10107DA45E2
:1001A00001D100F031F8AFF2090EBAE80F0013F0F8
:1001B000010F18BFFB1A43F001031847300201007A
:1001C00050020100103A24BF78C878C1FAD852070B
:1001D00024BF30C830C144BF04680C6070470000C1
:1001E0000023002400250026103A28BF78C1FBD840
:1001F000520728BF30C148BF0B6070471FB50FF0D2
:100200006FFF1FBD10B510BD0FF026FF1146FFF7A1
:10021000F5FF00F080F90FF058FF03B4FFF7F2FF8D
:1002200003BC0AF029FF000000242EE04FF496736F
:100230000022114610460FF099FC01F0A1FE01F0DA
:1002400081FF02F06BFA002414E0C4EBC40000EB61
:100250008000CD4911F81000EE2809D0611CC8B209
:1002600000F055FE64230022114610460FF07EFC7C
:10027000601CC4B2C5484078A042E6DC4FF49673D7
:100280000022114610460FF071FCCFE769E04FF4F1
:1002900096730022114610460FF068FCBC480078A7
:1002A00038B9012108460BF048FB012188070BF003
:1002B000F9FFB848007870B16421B7480FF072FEBA
:1002C000B5480AF021FD05200AF0ACFE0020B14936
:1002D000087006F0A1FCB1480078E0B10020AF49F9
:1002E000087005200FF048FB4FF4FA730022114606
:1002F00010460FF03BFCA84B5A7B197BD87A01F0D3
:1003000028F94FF4FA730022114610460FF02EFC24
:1003100005200FF0A2FAA2480078D8B10020A04929
:10032000087005200FF028FB4FF4FA7300221146E5
:1003300010460FF01BFC984A917BD07A00F0DDFF4D
:100340004FF4FA730022114610460FF00FFC0520FF
:100350000FF083FA4FF496730022114610460FF007
:1003600005FC94E71FE04FF49673002211461046F7
:100370000FF0FCFB8B48007870B164218A480FF0C5
:10038000EFFD89480AF07DFD05200AF04BFE0020B4
:100390008449087001F067FA4FF496730022114601
:1003A00010460FF0E3FBDEE700BF002588E04FF4C6
:1003B00096700AF037FE09F00BFB05230022114668
:1003C00010460FF0D3FB01F02DF901F060F9002584
:1003D0006EE005EB450000EB0510744901EB4000B1
:1003E0004078EE2862D005EB450000EB051001EBEC
:1003F0004000868C012451E006F48040B0F5804F27
:1004000035D105EB450000EB0510684901EB4000D4
:10041000001D005D0421C1EB400105EB450000EB30
:100420000510624A02EB40001430005D08441021C0
:1004300011FB00405E49087005EB450303EB051313
:10044000174607EB4303DA7805EB450303EB051387
:1004500007EB430399786B1CD8B200F087FC554832
:10046000005D401C5349085532200AF0DBFD4FF671
:10047000FF7000EA46064F48005D0A280CD10020B4
:100480004C490855E22105EB051000EB85104A4A5E
:1004900002EB400040300155601CC4B2102CABDBB5
:1004A000C8230022114610460FF060FB681CC5B23D
:1004B00036480078A8428CDC4FF496700AF0B2FD02
:1004C00075E770B50446002500BF0FF0D7FC054660
:1004D00007233A4A0021AFF22F100EF0CDFF04237C
:1004E000374A0021AFF283100EF0C6FF0323354ACE
:1004F0000021AFF267200EF0BFFF0523324A002132
:10050000AFF2DB200EF0B8FF0A200FF035FA2846D4
:100510000FF0B8FC70BD10B5A8200AF033FD00F054
:100520006BF900F0CFF909F012FE07F035F909F088
:100530004FFA4FF416500AF0ABF84FF416500AF089
:1005400055F909F0AAFF42F2CF0141F2873009F0D4
:1005500077FF42F2CF01092009F0F6FE42F2CF0107
:10056000092009F018FF4FF4A0600AF009FE0DF011
:10057000D0FC0A23154A0021AFF2B9000EF07CFF2F
:100580000DF0ECFD002010BD640B00207700002072
:100590005800002002000020E8010020590000203F
:1005A0005A00002001000020B2020020E6070020CF
:1005B0005C000020180100207E0800201C2700207D
:1005C0001C2F0020BC3E0020BC4600201C1F002029
:1005D000704700BFFEE700BFFEE700BFFEE700BFB9
:1005E000FEE77047704700000CB5002001900090B6
:1005F0007648006840F480307449086000BF734852
:10060000006800F4003000900198401C01900098B0
:1006100018B90198B0F5A04FF1D16C48006800F40A
:10062000003010B10120009001E0002000900098FF
:10063000012846D165484030006840F08050634949
:10064000403108606248006840F4404060490860FA
:100650005E48083000685D49083108600846006857
:1006600040F4004008600846006840F4A05008606C
:100670005848091F0860081F006840F08070091F73
:10068000086000BF5148006800F000700028F9D0F1
:1006900040F20570504908604C480830006820F06E
:1006A00003004A49083108600846006840F002002B
:1006B000086000BF45480830006800F00C000828BA
:1006C000F8D10CBD10B54548006840F470004349AE
:1006D00008603E48006840F001003C490860002086
:1006E0003A4908310860394800683D4908403749AF
:1006F00008603C48091D0860081F006820F480203D
:10070000091F0860002031490C310860FFF76CFFB9
:100710004FF0006031498039086010BD70B500208D
:100720000022022300240221284D08352D6805F0FF
:100730000C0020B1042806D0082834D107E02A4D47
:100740002A4E356033E02A4D284E35602FE01F4D8C
:100750002D1D2D68C5F380541C4D2D1D2D6805F0F1
:100760003F0154B1224DB5FBF1F5184E361D3668E8
:10077000C6F3881605FB06F209E01B4DB5FBF1F543
:10078000124E361D3668C6F3881605FB06F20F4D6D
:100790002D1D2D68C5F301456D1C6B00B2FBF3F5F3
:1007A000124E356003E0104D104E356000BF00BFA3
:1007B000064D08352D68C5F303150E4E705D0B4DC3
:1007C0002D68C540094E356070BD000000380240FC
:1007D0000070004008544007003C024088ED00E0F3
:1007E000FFFFF6FE103000240024F40084000020F7
:1007F00000127A00880000201CB5012120200BF097
:1008000053F84FF4C060009001208DF804000020E0
:100810008DF8060003208DF8050001208DF80700F3
:10082000694625480AF0A2FD4FF4C06122480AF04B
:1008300019FE1CBD10B50DF082FB01211F480CF004
:1008400060F901280AD100201D49086001211B48D8
:100850000CF068F9002119480BF024FD0DF08AFB1B
:1008600010BD7FB505460C46012120200BF065F830
:100870000295ADF804400020ADF80600ADF80C007C
:1008800001A90E480BF085FC012211460B480CF023
:1008900021F9002109480BF005FD37208DF80000F3
:1008A00000208DF8010001208DF802008DF8030072
:1008B00068460AF06AFC7FBD001402400014004044
:1008C000A88242421CB5012108460AF0EDFF4FF410
:1008D000C050009001208DF8040000208DF8060023
:1008E00003208DF8050001208DF807006946FD48BA
:1008F0000AF03CFD0120FC490860FC49C1F8AC024B
:100900001CBD10B5F748006820F44000F5490860A8
:100910000846006840F4800008600120F249091F81
:100920000860F249C1F8B00204200AF051FB00202F
:10093000ED49091F086004200AF04AFB0020EB493A
:10094000C1F8B00210BD10B5E648006820F44000C0
:10095000E44908600846006840F480000860002010
:10096000E1490860E149C1F8AC0204200AF030FB1B
:100970000120DD490860DD49C1F8AC0204200AF01D
:1009800027FB10BD10B50024D648006820F44000B5
:10099000D44908600846006808600120D249091F50
:1009A00008600AF015FB0120D049C1F8B0020AF036
:1009B0000FFB07E0601CC4B2FA2C03DDFFF7C3FF96
:1009C000012010BDC848843800680028F2D1C6490B
:1009D000086000BFF5E710B50020C3490860C148B2
:1009E000006820F44000BF4908600846006840F4F1
:1009F000800008600020BD49C1F8AC0202200AF066
:100A0000E7FA0120B849086002200AF0E1FA002064
:100A1000B649C1F8B00210BD10B50020B249086057
:100A2000B048006820F44000AE49086008460068FD
:100A300040F4800008600120AC49C1F8AC020220FB
:100A40000AF0C6FA0120A849086002200AF0C0FA9C
:100A50000020A649C1F8B00210BD70B50446A148F7
:100A6000006820F440009F4908600846006840F490
:100A70008000086000209C490860002517E0E0091C
:100A80009949091F08606006040E02200AF0A0FAC6
:100A900001209649C1F8B00202200AF099FA00201C
:100AA0009149086002200AF093FA681CC5B2082D2B
:100AB000E5DB70BD70B5054600248A48006820F467
:100AC000400088490860084600680860002616E073
:100AD00000208549086002200AF07AFA0120834943
:100AE000C1F8B0026006040E7F488438006808B17F
:100AF000601CC4B201200AF06BFA701CC6B2082E4A
:100B0000E6DB15B9FFF788FF01E0FFF764FF204639
:100B100070BD70B504460026FFF7F3FEA020FFF776
:100B20009CFFFFF72FFF2012FFF797FFFFF72AFF29
:100B30002546E11704EB11610912A4EB0121C8B2AB
:100B4000FFF78BFFFFF71EFFFFF7DBFEA120FFF78C
:100B500084FFFFF717FF0020FFF7ACFF0646FFF703
:100B6000F2FE304670BD70B504460E46FFF7C9FE72
:100B7000A020FFF772FFFFF705FF2012FFF76DFFC0
:100B8000FFF700FF2546E11704EB11610912A4EB02
:100B90000121C8B2FFF761FFFFF7F4FE3046FFF70F
:100BA0005CFFFFF7EFFEFFF7CEFE0A200AF03AFAED
:100BB00070BD2DE9F04105460C4616460027FFF7AB
:100BC000A0FE45B11CB1A620FFF747FF0BE0A42013
:100BD000FFF743FF07E01CB1A220FFF73EFF02E052
:100BE000A020FFF73AFFFFF7CDFEC6F30720FFF77F
:100BF00034FFFFF7C7FEF0B2FFF72FFFFFF7C2FE8B
:100C0000FFF77FFE45B11CB1A720FFF726FF0BE0E1
:100C1000A520FFF722FF07E01CB1A320FFF71DFF6F
:100C200002E0A120FFF719FFFFF7ACFE0020FFF75D
:100C300041FF0746FFF787FE3846BDE8F08170B5F3
:100C400005460C46FFF75DFE45B11CB1A720FFF736
:100C500004FF0BE0A520FFF700FF07E01CB1A32075
:100C6000FFF7FBFE02E0A120FFF7F7FE0020FFF7F1
:100C700021FF0646FFF767FE304670BD2DE9F041C3
:100C800006460C4615461F46FFF73BFE46B11CB113
:100C9000A620FFF7E2FE0BE0A420FFF7DEFE07E050
:100CA0001CB1A220FFF7D9FE02E0A020FFF7D5FE7D
:100CB000FFF768FEC5F30720FFF7CFFEFFF762FEE0
:100CC000E8B2FFF7CAFEFFF75DFE3846FFF7C5FE44
:100CD000FFF758FEFFF737FE0A200AF0A3F9BDE838
:100CE000F081000000000240B0024042000040429B
:100CF000002105E0002200E0521C7B2AFCD3491CA5
:100D00008142F7D3704770B504460820FE4981F848
:100D1000C900084680F86440032180F8651000216E
:100D200080F8661080F8671080F86810102C03DADD
:100D3000052180F8691003E00321F34880F8691069
:100D4000F14890F8C900801EC1B2EF48643001F04C
:100D5000D9FE0546290AEC4880F86A1080F86B50E5
:100D600090F8C910643009F0E3FD70BD2DE9F04141
:100D700004460D4617460820E34981F8C9000420BF
:100D8000C0EB45003844102101FB0040DE4981F8EA
:100D900064000321DC4880F86510002180F86610AB
:100DA00080F8671080F86810082D6FD2DFE805F032
:100DB0009604051D354D657E91E0012C06D0022C70
:100DC00009D0032C0CD0042C0CD10AE00521CE480C
:100DD00080F8691007E00321CB4880F8691002E031
:100DE00001E000E000BF00BF79E0012C06D0022C3A
:100DF00009D0032C0CD0042C0CD10AE00521C248E8
:100E000080F8691007E00321BF4880F8691002E00C
:100E100001E000E000BF00BF61E0012C06D0022C21
:100E200009D0032C0CD0042C0CD10AE00521B648C3
:100E300080F8691007E00321B34880F8691002E0E8
:100E400001E000E000BF00BF49E0012C06D0022C09
:100E500009D0032C0CD0042C0CD10AE00521AA489F
:100E600080F8691007E00321A74880F8691002E0C4
:100E700001E000E000BF00BF31E0012C07D0022CF0
:100E80000AD0032C0DD0042C0DD10BE026E0052157
:100E90009D4880F8691007E003219B4880F869109D
:100EA00002E001E000E000BF00BF18E0012C06D026
:100EB000022C09D0032C0CD0042C0CD10AE0052103
:100EC000914880F8691007E003218F4880F8691085
:100ED00002E001E000E000BF00BF00E000BF00BF93
:100EE000894890F8C900801EC1B28748643001F07B
:100EF00009FE0646310A844880F86A1080F86B6063
:100F000090F8C910643009F013FDBDE8F0812DE9B7
:100F1000F05F05460024A0460026A346681E00EBAD
:100F200080007A4901EB80008179681E00EB800027
:100F3000764A02EB8000407801EB00201FFA80F92E
:100F4000681E00EB8000114601EB8000C179681E2D
:100F500000EB800002EB8000807801EB00201FFA9C
:100F600080FA681E00EB8000114601EB8000017AD8
:100F7000681E00EB800002EB8000C07801EB0020CF
:100F800087B200BFA4E0681E00EB4001C1EB401037
:100F90005F4901EB80002230005D10B3681E00EB5A
:100FA0004001C1EB40105A4901EB80002230005D46
:100FB00001280BD1C4F10F018840304386B2C4F13F
:100FC0000F0101208840384387B27FE0C4F10F0150
:100FD000012088408643C4F10F01012088408743E7
:100FE00074E0681E00EB4001C1EB4010484901EB82
:100FF00080003230005D28B3681E00EB4001C1EB79
:101000004010434901EB80003230005D01280DD1D2
:10101000C4F10F018840304386B2C4F10F010120B2
:10102000884040EA0A001FFA80FA4FE0C4F10F013D
:10103000012088408643C4F10F01012088402AEA3C
:10104000000A43E0681E00EB4001C1EB401030494C
:1010500001EB80004230005D10B3681E00EB4001E0
:10106000C1EB40102A4901EB80004230005D0128AD
:101070000BD1C4F10F018840304386B2C4F10F0197
:1010800001208840384387B220E0C4F10F010120DD
:1010900088408643C4F10F0101208840874315E052
:1010A000C4F10F01012088408643C4F10F010120E3
:1010B000884029EA0009C4F10F01012088402AEA8A
:1010C000000AC4F10F01012088408743601CC4B2AC
:1010D000C4EBC40000EB80000E4901EB40004078F7
:1010E000A0423FF750AF3046F11706EB1161C1F354
:1010F0000722691E01EB8101044B03F82120F1173F
:1011000006EB1161091207E0B2020020140B002067
:1011100016060020640B0020A6EB0121CAB2691E4E
:1011200001EB810103EB81014A7148464FEAE97105
:1011300009EB11610A0A691E01EB810103EB8101D0
:101140004A704FEAE97109EB11610912A9EB01211B
:10115000CAB2691E01EB810103EB81018A7150461D
:101160004FEAEA710AEB11610A0A691E01EB81017B
:1011700003EB81018A703846F91707EB11610912F8
:10118000A7EB0121CAB2691E01EB810103EB8101CA
:10119000CA71F91707EB11610A0A691E01EB810197
:1011A00003EB8101CA70F91707EB11610912A7EB74
:1011B0000121CAB2691E01EB810103EB81010A72B0
:1011C0004FF000088CE0B8F1010F54DDB8F1070FC3
:1011D0001BD106F40040B0F5004F0BD1FE4800686B
:1011E00001283FD10020FC4980310860052009F02A
:1011F00019FF37E0F848006800BB0120F64980314C
:101200000860052009F00EFF2CE006F40040B0F560
:10121000004F14D108F10100F04901EB8000D0F833
:10122000000201281ED1002108F10100EB4A02EB67
:101230008000C0F88012052009F0F4FE12E008F1E9
:101240000100E64901EB8000D0F8000250B901210D
:1012500008F10100E14A02EB8000C0F8801205208D
:1012600009F0E0FEC8F10F010120884040EA0B00C0
:101270001FFA80FB2CE006F40040B0F5004F10D1BF
:10128000D64901EB8800D0F80002012818D10020CF
:101290000A4602EB8801C1F88002052009F0C2FE6F
:1012A0000EE0CE4901EB8800D0F8000240B90120E1
:1012B0000A4602EB8801C1F88002052009F0B2FE5F
:1012C000C8F10F010120884040EA0B001FFA80FBA3
:1012D0004FF6FF7000EA460608F1010000F0FF0833
:1012E000C4EBC40000EB8000BD4901EB4000407836
:1012F00040453FF768AFBDE8F09F2DE9F041044657
:101300000E462046E11704EB11710911A4EB0111FF
:10131000CFB20820B34981F8C900084680F864407C
:10132000062180F86510002180F8661080F8696059
:1013300080F86810012F06D0022F09D0032F0CD09F
:10134000042F0CD10AE00721A64880F8671007E0B7
:101350000421A44880F8671002E001E000E000BF2B
:1013600000BFA04890F8C900801EC1B29D486430FB
:1013700001F0C8FB0546290A9A4880F86A1080F8EF
:101380006B5090F8C910643009F0D2FA0A2009F0C5
:1013900049FEBDE8F0812DE9F04104460D461646B0
:1013A0001F461220904981F8C9009048007881F8C2
:1013B00064008E4841788C4880F865108B488178AD
:1013C000894880F866108948C178874880F8671096
:1013D000032180F86810402180F869100B2180F803
:1013E0006A10082180F86B10D02180F86C10002161
:1013F00080F86D10012180F86E1080F86F4080F841
:10140000705080F87160002180F8721080F873705D
:1014100090F8C900801EC1B27348643001F072FBBD
:1014200080464FEA1821704880F8741080F8758063
:1014300090F8C910643009F041FABDE8F08170B548
:1014400004460D460F20684981F8C90067480078B6
:1014500081F8640065484178634880F86510634806
:101460008178614880F866106048C1785E4880F8ED
:101470006710032180F86810402180F86910082166
:1014800080F86A10072180F86B10D02180F86C106A
:10149000002180F86D10012180F86E1080F86F40F7
:1014A00080F8705090F8C900801EC1B24E48643078
:1014B00001F028FB0646310A4B4880F8711080F88D
:1014C000726090F8C910643009F0F8F970BD10B579
:1014D0000D20454981F8C9004448007881F864002E
:1014E00042484178404880F86510404881783E483D
:1014F00080F866103D48C1783B4880F86710162197
:1015000080F86810402180F86910082180F86A107E
:10151000072180F86B10D02180F86C10002180F832
:101520006D10012180F86E1090F8C900801EC1B2C4
:101530002D48643001F0E6FA0446210A2A4880F872
:101540006F1080F8704090F8C910643009F0B6F957
:1015500010BD2DE9F04104460D46164608202149EC
:1015600081F8C900084680F86440062180F86510BB
:10157000002180F866100A2180F8671080F8685012
:1015800080F8696090F8C900801EC1B215486430C7
:1015900001F0B8FA0746390A124880F86A1080F854
:1015A0006B7090F8C910643009F088F9BDE8F081DB
:1015B00070B5044608200B4981F8C900084680F838
:1015C0006440032180F86510002180F866100A212C
:1015D00080F8671000210BE01482404200804142F5
:1015E000640B0020B2020020E801002073000020FC
:1015F00080F86810012180F8691090F8C900801EF9
:10160000C1B2FE4801F07EFA0546290AFB4864385B
:1016100080F86A1080F86B5090F8C910643009F0B7
:1016200087F970BDF6480068C0B9F648408800F4F4
:10163000804030B1F348C08820F48041F148C18037
:1016400005E0F048C08840F48041EE48C180ED4894
:10165000808840F48041EB48818017E0E948408869
:1016600000F4804030B1E748C08840F48041E5484C
:10167000C18005E0E348C08820F48041E148C18092
:10168000E048808820F48041DE488180704770B552
:101690000024DD484589DD48006830B9DC48008D0C
:1016A00040F40061DA48018515E0D948008D20F446
:1016B0000061D748018505F4006030B1D448408D01
:1016C00040F40061D248418505E0D148408D20F4C6
:1016D0000061CF48418501230022114610460EF0DB
:1016E00045FACA48001D006830B9C948008D40F469
:1016F0008071C748018515E0C548008D20F48071D0
:10170000C348018505F4807030B1C148408D40F474
:101710008071BF48418505E0BD48408D20F480714F
:10172000BB48418501230022114610460EF01EFAE7
:1017300009242FE0601FB74901EB8000D0F80002B8
:1017400058B9B348008D0121A140084381B2B04887
:101750000185022009F066FC19E0AD48008D0121E9
:10176000A1408843AA49088505F4007040B10846A5
:10177000408D0121A140084381B2A548418506E082
:10178000A348418D0120A0408143A14841856D10AF
:10179000601CC4B20B2CCDDB012300221146104685
:1017A0000EF0E4F99C48006830B99948008D40F487
:1017B00000419748018515E09548008D20F40041CF
:1017C0009348018505F4004030B19148408D40F4C4
:1017D00000418F48418505E08D48408D20F400414F
:1017E0008B48418501230022114610460EF0BEF9B8
:1017F000854845890C242DE0A4F10B00874901EBB5
:101800008000D0F8000240B98148008D0121A1403C
:10181000084381B27E48018519E07D48008D012191
:10182000A14088437A49088505F4805038B10846BC
:10183000418D0120A04001437548418507E074486F
:10184000418D0120A04021EA0000714948856D10BA
:10185000601CC4B20F2CCFDB0123002211461046BE
:101860000EF084F970BD2DE9F04F99B00025A8461F
:10187000AB466248643890F8C8703A46694601F051
:1018800035F99DF80000C11700EB11710911A0EBAB
:101890000111CCB29DF80100032810D09DF8010081
:1018A00006280CD0E021601E00EB400202EB001085
:1018B0005B4A02EB4000417019B0BDE8F08F9DF823
:1018C000010003282ED19DF80210781F814229D0F3
:1018D000012C02D0022C22D115E0E321601E00EB86
:1018E000001202EB80104F4A02EB400080F84010DB
:1018F000601E00EB001202EB80104A4A02EB40002F
:1019000080F841100CE0E321601E00EB001202EBB6
:101910008010444A02EB400080F8421000E000BF13
:1019200000BFC9E7B81EC1B2684601F0EBF8064631
:101930004FEA162906F0FF0AB81E1DF800004845B8
:1019400004D1781E1DF8000050450AD0E021601E29
:1019500000EB400202EB0010314A02EB4000417004
:10196000AAE79DF80100032802D006287DD18FE266
:10197000012C02D0022C79D18CE19DF802000228C2
:1019800004D0082873D00A2872D111E09DF8031002
:10199000601E254A02F810109DF8041002EB40006A
:1019A00041709DF804109DF80300FFF748FD6FE1BA
:1019B000E121601E00EB400202EB0010184A02EB2E
:1019C000400041709DF80310601E00EB001202EB16
:1019D0008010144A02F810109DF80410601E00EBED
:1019E000001202EB80100F4A02EB40000174601EEF
:1019F00000EB001101EB8010114617E016030020E8
:101A00003802424240180020140B002000024042DD
:101A1000640B0020000040420002414200004142AD
:101A2000E60700207E0800207900002001EB40003E
:101A3000017C601E00EB001202EB8010FE4A12F8DF
:101A4000100001EB002081B2601E00EB001202EBDF
:101A50008010F94A02EB400001840021601E00EB77
:101A6000001202EB8010F44A03E085E20DE20DE182
:101A70000DE102EB400080F86010601E00EB0012E8
:101A800002EB8010EC4A02EB400080F87010601E00
:101A900000EB001202EB8010E74A02EB400080F8F6
:101AA00040109DF80B10601E00EB001202EB80103E
:101AB000E14A02EB400041709DF80C10601E00EB03
:101AC000001202EB8010DC4A02EB40004174601E01
:101AD00000EB001101EB8010114601EB4000417C4E
:101AE000601E00EB001202EB8010D34A02EB4000B4
:101AF000407801EB002081B2601E00EB001202EB87
:101B00008010CD4A02EB400041849DF80710601E12
:101B100000EB001202EB8010C74A02EB400080F895
:101B200061109DF80810601E00EB001202EB80109F
:101B3000C14A02EB400080F871100021601E00EBEA
:101B4000001202EB8010BC4A02EB400080F841100A
:101B5000002597E0601E00EB001101EB8010B649F4
:101B600001EB4000203030F81510601E00EBC00281
:101B700002EB0010B14A02EB80001030425D601EA3
:101B800000EBC00303EB0010AC4B03EB8000405DA7
:101B900002EB0022601E00EBC00303EB0010A74B1A
:101BA00003EB80004030405D02EB0022601E00EB42
:101BB000C00303EB0010A14B03EB80005030405DED
:101BC000104481420BDA0221601E00EB001202EB8E
:101BD0008010994A02EB400080F8501050E0601EDF
:101BE00000EB001101EB8010934901EB4000203025
:101BF00030F81510601E00EBC00202EB00108F4A97
:101C000002EB80003030425D601E00EBC00303EB4E
:101C100000108A4B03EB80002030405D02EB002275
:101C2000601E00EBC00303EB0010844B03EB80004D
:101C30004030405DA2EB0022601E00EBC00303EBCE
:101C400000107E4B03EB80005030405D101A814243
:101C50000BDA0121601E00EB001202EB8010764AC5
:101C600002EB4000503041550AE00021601E00EBBD
:101C7000001202EB8010704A02EB400050304155D8
:101C8000681CC5B2022DFFF665AF01E000E000BFA1
:101C900000BFFBE09DF80200012802D006287CD19D
:101CA00000E0F0E09DF80510601E00EB001202EB72
:101CB0008010614A02EB400081709DF80610601EA2
:101CC00000EB001202EB80105B4A02EB40008174D3
:101CD000601E00EB001101EB8010114601EB40008B
:101CE000817C601E00EB001202EB8010524A02EB76
:101CF0004000807801EB002081B2601E00EB0012F2
:101D000002EB80104C4A02EB400081849DF80710E2
:101D1000601E00EB001202EB8010474A02EB40000D
:101D200080F862109DF80810601E00EB001202EBB4
:101D30008010414A02EB400080F872100021601EC2
:101D400000EB001202EB80103B4A02EB400080F8EF
:101D50004210601E00EBC00101EB0010374901EB9F
:101D60008000817C601E00EBC00202EB0010334A51
:101D700002EB8000807801EB0021601E00EBC002C6
:101D800002EB00102D4A02EB800090F8420001EBBC
:101D90000021601E00EBC00200E073E002EB0010C7
:101DA000264A02EB800090F852000144601E00EBCE
:101DB000001202EB8010204A02EB4000808C81422E
:101DC0000BDD0221601E00EB001202EB80101A4AAC
:101DD00002EB400080F8521053E0601E00EBC0019F
:101DE00001EB0010154901EB800090F83210601EE5
:101DF00000EBC00202EB0010104A02EB800090F8EA
:101E0000220001EB0021601E00EBC00202EB00107B
:101E10000A4A02EB800090F84200A1EB0021601E0C
:101E200000EBC00202EB0010044A02EB800090F8C5
:101E30005200091A601E03E07E080020760400208C
:101E400000EB001202EB8010FE4A02EB4000808C97
:101E500081420BDD0121601E00EB001202EB8010BD
:101E6000F84A02EB400080F852100AE00021601EA0
:101E700000EB001202EB8010F24A02EB400080F807
:101E8000521000E000BF00BF00E000BF00BF74E0E0
:101E9000012C02D0022C6CD155E09DF803000528DE
:101EA0004DD0072802D00A284AD145E09DF8050008
:101EB0000A2839DD9DF8050010282DD14FF00008C3
:101EC00008E01DF80810E04800F8081008F10100CB
:101ED00000F0FF08B8F1060FF3DB0820DA49643997
:101EE00081F8C9001321D848643880F8691090F847
:101EF000C900801EC1B2D44800F004FE0646310A73
:101F0000D148643880F86A1080F86B6090F8C91086
:101F1000643008F0D3FC0EE09DF805200123002179
:101F20004020FFF738FA06E09DF805200123002144
:101F30004020FFF730FA04E0FFF7C9FA01E000E0C3
:101F400000BF00BF16E09DF80300012804D004285C
:101F500003D006280AD108E009E09DF805200123F6
:101F600000212020FFF717FA01E000E000BF00BFCA
:101F700000E000BF00BF00E000BF00BF00BF9BE467
:101F800070B50025B14808F0BCF80024D4E0C4EBDB
:101F9000C40000EB8000AE4911F81000EE287CD0A0
:101FA00004EB4400C0EB4410AA4931F8206000253E
:101FB000BDE006F40040B0F5004F33D1A3484079AE
:101FC000A2490979C1EB011100EB810104EB440046
:101FD000C0EB44109F4A02EB80006230425D04EB8C
:101FE0004400C0EB44109B4B03EB80005230405D3B
:101FF000C0EB001002EB800081421FDA04EB4400CA
:10200000C0EB4410194601EB8000801C405D50B1CC
:10201000012104EB4400C0EB44101A4602EB80009F
:10202000223041557DE0022104EB4400C0EB441016
:10203000884A02EB80002230415572E0002104EB17
:102040004400C0EB4410834A02EB8000223041552B
:1020500004EB4400C0EB4410114631F82000C5F1F8
:102060000F0201219140884304EB4401C1EB44116C
:10207000784A22F8210004EB4401C1EB441132F804
:102080002100C11700EB1161090A04EB4402C2EB05
:102090004412704B03EB820200E04BE082F87210B6
:1020A00004EB4401C1EB44111A4632F82100C11778
:1020B00000EB11610912A0EB012104EB4402C2EB19
:1020C000441203EB820282F8731004EB4400C0EB6D
:1020D0004410194601EB800090F872304FF4B7714C
:1020E00004FB01F000F10B0200210846FEF7C6FDDB
:1020F000032008F097FF04EB4400C0EB441055495F
:1021000001EB800090F873304FF4B77104FB01F0DD
:1021100000F10C0200210846FEF7B0FD032008F094
:1021200081FF4FF6FF7000EA4606681CC5B2102D0D
:10213000FFF63FAF601CC4B247484078A0423FF76B
:1021400026AF70BD2DE9F84F0025404807F0D9FFB4
:102150000024DCE2C4EBC40000EB80003C4911F831
:102160001000EE286DD004EB041000EB84103B4906
:1021700001EB8000B0F802A00025C3E20AF40040A1
:10218000B0F5004F6CD104EB041000EB8410334920
:1021900001EB8000001D05EB850100EBC100807F95
:1021A000012802D002287DD1C5E104EB041000EB28
:1021B00084102A4901EB8000001D05EB850100EB2E
:1021C000C10090F818B000261AE004EB041000EBF0
:1021D0008410224901EB8000001D05EB850100EB16
:1021E000C100B0F8168008F40040B0F5004F01D1EE
:1021F000009607E04FF6FF7000EA4808701CC6B270
:10220000102EE2DB00BF002691E104EB041000EB8E
:102210008410124901EB8000001D05EB850100EBE5
:10222000C100B0F81C8008F40040B0F5004F7DD12B
:1022300004EB041000EB8410084901EB8000001D42
:102240000FE062E27E08002016030020A8010020B3
:10225000640B00201606002077000020F8180020EC
:102260004AE205EB850100EBC10090F819900027C8
:1022700053E109F0800080287ED104EB041000EBCC
:102280008410FE4901EB8000001D05EB850100EB89
:10229000C100C15D04EB041000EB8410F74A02EBAF
:1022A000800000E026E2001D05EB850200EBC20085
:1022B000001DC05DC0EB001001EB8000F0494979C2
:1022C000EF4A1279C2EB021201EB820188427DDAF9
:1022D00004EB041000EB8410E84901EB8000001DC2
:1022E00005EB850100EBC100C15D04EB041000EBC0
:1022F0008410E24A02EB8000001D05EB850200EB32
:10230000C200001DC05DC0EB001001EB8000DC4985
:102310004979DB4A1279C2EB021201EB8201884251
:1023200054DD04EB041000EB841000E0F9E0D34925
:1023300001EB8000001D05EB850100EBC100C07FB3
:10234000012867D104EB041000EB8410CB4901EBAA
:102350008000001D05EB850100EBC100418C04EB02
:10236000041000EB8410C54A02EB8000001D05EB51
:10237000850200EBC20000E04BE0C08C0A1AABF112
:10238000010000EB001101EB8010BE4901EB4000A1
:102390002030009930F8110082423ADD04EB44000D
:1023A000C0EB4410B84901EB80002230805D30BBA7
:1023B00004EB041000EB8410B04901EB8000001D19
:1023C00005EB850100EBC100103000E095E0C05D39
:1023D00050B1012104EB4400C0EB4410AA4A02EBC7
:1023E00080003230815509E0022104EB4400C0EB4B
:1023F0004410A54A02EB80003230815590E0002164
:1024000004EB4400C0EB44109F4A02EB80003230E2
:1024100081557CE004EB041000EB8410974901EB3C
:102420008000001D05EB850100EBC100C07F022884
:102430006DD104EB041000EB8410904901EB800097
:10244000001D05EB850100EBC100418C04EB04107D
:1024500000EB8410894A02EB8000001D05EB850229
:1024600000EBC200C08C0A18ABF1010000EB0011B8
:1024700001EB8010834901EB40002030009930F8D7
:102480001100824243DA04EB4400C0EB44107E4961
:1024900001EB80002230805D20BB04EB041000EBD8
:1024A0008410764901EB8000001D05EB850100EBEF
:1024B000C1001030C05D50B1012104EB4400C0EBFD
:1024C0004410714A02EB80003230815509E002214C
:1024D00004EB4400C0EB44106B4A02EB8000323046
:1024E00081551DE0002104EB4400C0EB4410664A16
:1024F00002EB80003230815509E0002104EB4400FA
:10250000C0EB4410604A02EB8000323081554FEA44
:1025100049604FEA1069781CC7B2042FFFF6A9AED4
:1025200000BF4FF6FF7000EA4808701CC6B2102EBC
:10253000FFF66BAEDFE00026D8E004EB041000EB02
:1025400084104E4901EB8000001D05EB850100EB76
:10255000C100B0F81C8008F40040B0F5004F7DD1F8
:1025600004EB041000EB8410444901EB8000001DD3
:1025700005EB850100EBC10090F819900027ABE056
:1025800009F0800080286AD104EB041000EB84106D
:102590003A4901EB8000001D05EB850100EBC1000D
:1025A000C15D04EB041000EB8410344A02EB8000A0
:1025B000001D05EB850200EBC200001DC05DC0EBF5
:1025C000001001EB80012E4840792D4A1279C2EBB0
:1025D000021200EB820081426EDA04EB041000EB81
:1025E0008410264901EB8000001D05EB850100EBFE
:1025F000C100C15D04EB041000EB84101F4A02EB24
:102600008000001D05EB850200EBC200001DC05DCF
:10261000C0EB001001EB800019494979184A127982
:10262000C2EB021201EB8201884245DD04EB44005B
:10263000C0EB4410144901EB80002230805DE0B90A
:1026400004EB041000EB84100C4901EB8000001D2A
:1026500005EB850100EBC100103001E040E035E002
:10266000C05D98B1012104EB4400C0EB4410064A60
:1026700002EB80003230815512E012E0F8180020A1
:10268000A80100207E08002016060020022104EB8D
:102690004400C0EB4410F84A02EB80003230815510
:1026A0001DE0002104EB4400C0EB4410F24A02EBB1
:1026B00080003230815509E0002104EB4400C0EB7A
:1026C0004410ED4A02EB8000323081554FEA4960F8
:1026D0004FEA1069781CC7B2042FFFF651AF00BF54
:1026E0004FF6FF7000EA4808701CC6B2102EFFF6C5
:1026F00024AF00E000BF00BF4FF6FF7000EA4A0AB7
:10270000681CC5B2082DFFF639AD601CC4B2DB48A9
:102710004078A0423FF71EADBDE8F88F2DE9F04F9D
:102720000022002600207CE100EB400909EB0019A3
:10273000DFF84CA30AEB490999F80190B9F1EE0FC3
:102740007DD0002166E14FF0B90900FB09F9DFF8FF
:1027500034A30AEB8909B9F8E282DFF82C9309EB7C
:102760008009B9F8027007EA080909F40049B9F5C7
:10277000004F65D14FF0B90900FB09F90AEB89094F
:10278000C1EBC10A0AEB011A19F81AC04FF0B909D6
:1027900000FB09F9DFF8ECA20AEB8909C1EBC10AD9
:1027A0000AEB011A09EB4A0999F811404FF0B909EF
:1027B00000FB09F9DFF8CCA20AEB8909C1EBC10AD9
:1027C0000AEB011A09EB4A09B9F82C5000231AE167
:1027D0000CF08009B9F1800F79D14FF0B90900FBF5
:1027E00009F9DFF8A0A20AEB8909C1EBC10A0AEBDB
:1027F000011A09EB4A0909F1180919F80390B9F10E
:10280000010F03D0B9F1020F7ED17EE000EB001979
:1028100009EB8019DFF874A20AEB490909F12009D4
:1028200039F811A04FF0B90900FB09F9DFF854B2EB
:102830000BEB8909C1EBC10B0BEB011B01E0ECE0D9
:10284000E4E009EB4B0909F11C0939F81390CA457A
:1028500059DA002254E005F40049B9F5004F45D19A
:1028600004EB4409C9EB4419DFF80CA20AEB89090F
:1028700009F1220919F8029004EB440ACAEB441A40
:10288000DFF8F4B10BEB8A0A0AF1320A1AF802A057
:1028900049EA0A09B9F1000F28D106F1010909F046
:1028A000FF064FF0B90900FB09F9DFF8D8A10AEBE0
:1028B0008909C1EBC10A0AEB011A09EB4A0909F1BE
:1028C000140919F80390B14502DA00261AE096E0DF
:1028D0004FF0010A04EB4409C9EB4419DFF898B141
:1028E0000BEB890909F1420909F802A04FF6FF79BB
:1028F00009EA450509EA470702F1010909F0FF0263
:10290000102AA8DB00BF79E077E000EB001909EBA3
:102910008019DFF878A10AEB490909F1200939F893
:1029200011A04FF0B90900FB09F9DFF858B10BEB22
:102930008909C1EBC10B0BEB011B09EB4B0909F139
:10294000240939F81390CA4556DD002251E005F4F8
:102950000049B9F5004F44D104EB4409C9EB4419CF
:10296000DFF814A10AEB890909F1220919F802A07C
:1029700004EB4409C9EB4419DFF8FCB00BEB8909FF
:1029800009F1320919F802904AEA090ABAF1000F6E
:1029900027D106F1010909F0FF064FF0B90900FB44
:1029A00009F9DFF8E0A00AEB8909C1EBC10A0AEBDB
:1029B000011A09EB4A0909F1140919F80390B14504
:1029C00001DA002617E04FF0010A04EB4409C9EBD5
:1029D0004419DFF8A4B00BEB890909F1420909F8A1
:1029E00002A04FF6FF7909EA450502F1010909F055
:1029F000FF02102AABDB00BF00E000BF00BF03F105
:102A0000010909F0FF03042BFFF6E2AE01F1010911
:102A100009F0FF011029FFF696AE00F1010909F057
:102A2000FF00DFF8589099F8009081453FF77CAEA1
:102A3000BDE8F08F70B5024600231AE0002012E0D6
:102A400032F81060451C32F81550AE4209DA12F81F
:102A50001040451C32F8155022F81050451C22F841
:102A60001540451CE8B24D1EED1A8542E8DC5D1CA0
:102A7000EBB28B42E2DB70BD16060020770000202F
:102A8000E60700207C0C0020060600207E080020BF
:102A9000012080F3138800BF00BFBFF34F8FF948B8
:102AA000006800F4E060F8490843001DF54908603B
:102AB000BFF34F8F00BF00BFFEE7F4480068F44942
:102AC0000860F248001D00684860F048083000685F
:102AD0008860084600684008496800EB9100EC49AE
:102AE000896800EBD100EB490860704710B503E03E
:102AF00010F8013B01F8013B1300A2F10104E2B21E
:102B0000F6D110BDF0B502460026FF23FF240025B4
:102B10000BE03046771CFEB2105C80EA0305DE480D
:102B2000405D80EA0403DD48445D081EA1F1010711
:102B3000F9B2EEDC44EA0320F0BD2DE9F04106468F
:102B40000F4600240D20D64981F8C90000BF05E0DA
:102B5000315DD34864300155601CC4B20B2CF7DBE7
:102B6000CF4890F8C900C01FC1B2CD4880F86A10A4
:102B7000D02180F86C1090F8C900801EC1B2C848FE
:102B80006430FFF7BFFF05462A0A2046611CCCB21D
:102B9000C34964310A5408460555643890F8C91091
:102BA000643007F08BFEBDE8F0812DE9F041054669
:102BB0000F4600260024E87A401EC6B20020B9491C
:102BC000885500BF11E004F10C002B5C4FF4B77185
:102BD00006FB01F06630021900210846FEF74EF8A8
:102BE000032008F01FFA601CC4B2062CEBDB394648
:102BF0002846FFF7A2FFBDE8F0812DE9F041054628
:102C00000F4600260024E87A401EC6B20020A649DE
:102C1000885500BF11E004F10C002B5C4FF4B77134
:102C200006FB01F03D30021900210846FEF726F8A8
:102C3000032008F0F7F9601CC4B2062CEBDB394620
:102C40002846FFF77AFFBDE8F0812DE9F0470646F8
:102C50008A460025A846954890F80190F07A5128B8
:102C60004BD052287ED1307B10BB002410E00020D6
:102C70008F4908554FF4B77004FB00F2EE23002192
:102C80000846FDF7FBFF032008F0CCF9601CC4B236
:102C90004C45ECDB00234CF2530219461846FDF775
:102CA000EDFF032008F0BEF900208049487023E0C2
:102CB00000241EE0012516E004F10D00305CA8425E
:102CC0000FD10021681E7A4A11544FF4B77100FBEE
:102CD00001F2EE2300210846FDF7D0FF032008F0A3
:102CE000A1F9681CC5B209F101008542E4DB601C52
:102CF000C4B2307BA042DDDC45E0002430E008F1C6
:102D00000D00355C0021681E694A11544FF4B771FB
:102D100010FB01F2E22300210846FDF7AFFF03207C
:102D200008F080F9002713E008F10E003844335C06
:102D3000681E4FF4B77101FB007000F143020021DF
:102D40000846FDF79BFF032008F06CF9781CC7B21A
:102D5000032FE9DB08F1040000F0FF08601CC4B297
:102D6000307B00E00EE0A042C9DC2B464CF253025F
:102D700000210846FDF782FF032008F053F94B4875
:102D8000457000E000BF00BF51463046FFF7D5FE5A
:102D9000BDE8F0872DE9F04105460F460026E87AA8
:102DA000401EC6B2002043498855002412E004F1B9
:102DB0000C002B5C4FF4317106FB01F000F24E2049
:102DC000021901210020FDF759FF032008F02AF91C
:102DD000601CC4B2022CEADB39462846FFF7ADFE80
:102DE000BDE8F0812DE9F34F85B0064600250024AB
:102DF000A346002004902D4840780390F07A512893
:102E000064D052287ED1307BF0B9002718E0002032
:102E10002949C85500240FE04FF4B77107FB01F0B2
:102E20006C300219002319461846FDF727FF0320CE
:102E300008F0F8F8601C84B2022CEDDB781CC7B2F5
:102E400003988742E3DB40E0012539E0307BA8426C
:102E500034D10021681E184A115400240FE0681E66
:102E60004FF4B77148436C300219002319461846D5
:102E7000FDF704FF032008F0D5F8601C84B2022C93
:102E8000EDDB21E00CED00E00000FA05E8F7FF1FA4
:102E90000C01002004000020EA000108EA010108FA
:102EA000E8010020360000202E00002077000020DE
:102EB00032000020140000202A000020681CC5B247
:102EC0000398401C8542C1DB00BFC7E00125BDE07F
:102ED000307BA84272D10021681EFE4A11544FF483
:102EE000B771484300F16C0200210846FDF761FE0E
:102EF0008DF80800032008F095F8681E4FF4B771AC
:102F0000484300E0A9E000F16D0200210846FDF70A
:102F100050FE8DF80900032008F084F89DF80800A1
:102F2000717B08438DF808009DF80900B17B0843C8
:102F30008DF80900002410E002A8035D681E4FF41C
:102F4000B77148436C30021900210846FDF796FE20
:102F5000032008F067F8601C84B2022CECDBB17B24
:102F6000707B01EB00201FFA80FA4FF0000867E049
:102F70000AF40040B0F5004F51D109F11A00305C5D
:102F80000190002415E04FEA4811681E4FF4B77C09
:102F90000CFB00106E30021909F10F002044335C65
:102FA00000210846FDF76AFE032008F03BF8601C8C
:102FB00084B20C2CE7DB4FF0000B2DE044E00198CD
:102FC00000F0800080281FD1002417E0202000FBA3
:102FD0000841681E4FF4B77C0CFB00107A300521C5
:102FE00001FB0B0209F11B00335C01210020FDF7FE
:102FF00045FE032008F016F8601C84B2052CE5DBC2
:103000000498401CC0B204904FF6FF7000EA4A0AD0
:103010000BF1010000F0FF0BBBF1040FCFDB4FF60B
:10302000FF7000EA4A0A049800EB80000C30484424
:1030300000F0FF090020049008F1010000F0FF08F3
:10304000B8F1080F94DB06E0681CC5B20398401C79
:103050008542FFF63DAF00BF00E000BF00BF304635
:103060000699FFF76AFD07B0BDE8F08F2DE9F04142
:1030700005468846174600240D20974981F8C90067
:1030800000BF05E0295D944864300155601CC4B25E
:103090000B2CF7DB28798030C1B28F4880F868109C
:1030A000052180F86A1080F86C7090F8C900801EC5
:1030B000C1B289486430FFF725FD0646320A204632
:1030C000611CCCB2844964310A5408460655643800
:1030D00090F8C910643007F0F1FBBDE8F0812DE9EC
:1030E000F0410446884600250021E07A401E7B4AD4
:1030F0001154617B207B01EB002087B2E07A784994
:103100004978884205DDEE2241462046FFF7AEFFB2
:103110002DE1002527E107F40040B0F5004F7DD1F7
:103120000121E07A401E00EB4002C2EB40106D4AE4
:1031300002EB800022304155E07A401E00EB400156
:10314000C1EB4010114631F82000C5F10F020121FA
:103150009140084381B2E07A401E00EB4002C2EB8E
:103160004010604A22F82010E07A401E00EB400137
:10317000C1EB4010114631F82060F01706EB1060EB
:10318000C0F30723E07A401E4FF4B77110FB01F043
:1031900000F10B0200210846FDF770FD032007F047
:1031A00041FFE07A401E00EB4001C1EB40104D4969
:1031B00031F82060F01706EB10600012A6EB00203B
:1031C000C3B2E07A401E4FF4B77110FB01F000F17A
:1031D0000C0200210846FDF751FD032007F022FFF5
:1031E000A17BE07A401E00EB4002C2EB40103D4A5A
:1031F00002EB8000801C41553B4806F082FF3A48B4
:103200000179E07A401E00EB4002C2EB4010354AE3
:1032100002EB800052304155217C00E09DE0E07BD4
:1032200001EB0020304949790844C1B2E07A401EE0
:1032300000EB4002C2EB40102A4A02EB80006230F1
:103240004155E07A401E00EB4001C1EB40101146B1
:1032500001EB80006230405D3C2826DDE07A401EB4
:1032600000EB4001C1EB4010114601EB80006230E1
:10327000405D3C38C1B2E07A401E00EB4002C2EB38
:103280004010184A02EB8000623041551648007920
:10329000401CC1B2E07A401E00EB4002C2EB40107D
:1032A000104A02EB800052304155E07A401E4FF444
:1032B000B77110FB01F00F3005EB45014218A37BFD
:1032C00000210846FDF7DAFC032007F0ABFEE07AA8
:1032D000401E0BE02A000020E8010020260000200C
:1032E0007700002016060020A80100204FF4B771D7
:1032F00010FB01F00E3005EB45014218E07A401E4C
:1033000000EB4001C1EB4010FE4901EB8000523060
:10331000435D00210846FDF7B1FC032007F082FE63
:10332000E07A401E4FF4B77110FB01F00F3005EB4F
:1033300045014218E07A401E00EB4001C1EB40100D
:10334000F04901EB80006230435D00210846FDF743
:1033500095FC032007F066FE08E04FF6FF7000EAD8
:103360004707681CC5B2082DFFF6D5AE00BF414621
:103370002046FFF7E2FBBDE8F0812DE9F34F85B071
:10338000064600240025A246002004908046DE4820
:1033900090F800B0F07A512870D052286FD1307B6D
:1033A00000BBA1461BE00020D84901F80900002518
:1033B0000FE04FF4317109FB01F023304219002373
:1033C00001211846FDF75AFC032007F02BFE681C6C
:1033D00085B2022DEDDB09F1010000F0FF09D945AE
:1033E000E1DB69E0012462E0307BA0425DD1002195
:1033F000601EC64A1154B0790A2841D1601E4FF4AC
:103400003171484300F1230201210020FDF7D1FB77
:103410008DF80800032007F005FE601E4FF431719F
:10342000484300F1240201210020FDF7C2FB8DF882
:103430000900032007F0F6FD9DF80800717B884322
:103440008DF808009DF80900B17B88438DF80900CC
:10345000002510E002A8435D601E4FF4317148431F
:103460002330421901210020FDF708FC032007F05A
:10347000D9FD681C85B2022DECDB15E01DE022E1D0
:1034800000250FE0601E4FF431714843233042198C
:10349000002301211846FDF7F1FB032007F0C2FDD0
:1034A000681C85B2022DEDDB05E0601CC4B20BF197
:1034B0000100844298DB00BF06E10124FCE0307B80
:1034C000A0427CD10021601E904A11544FF431710A
:1034D000484300F1230201210020FDF76AFB8DF82B
:1034E0000800032007F09EFD601E4FF43171484331
:1034F00000F1240201210020FDF75BFB8DF809009B
:10350000032007F08FFD9DF80800717B08438DF8BC
:1035100008009DF80900B17B08438DF809000025DB
:1035200010E002A8435D601E4FF431714843233020
:10353000421901210020FDF7A1FB032007F072FDD5
:10354000681C85B2022DECDB9DF809109DF808007F
:1035500001EB002080B203900027A7E0039800F45D
:103560000040B0F5004F7DD108F11200305C0190B1
:10357000C7EBC7008100601E4FF4317C0CFB0010CC
:1035800000F1250208F10F00335C01210020FDF756
:1035900075FB032007F046FDC7EBC7008100601EE6
:1035A0004FF4317C0CFB001000F1260208F11000F2
:1035B000335C01210020FDF761FB032000E079E08E
:1035C00007F030FDC7EBC7008100601E4FF4317C6F
:1035D0000CFB001000F1270208F11100335C0121FF
:1035E0000020FDF74BFB032007F01CFDC7EBC700D5
:1035F0008100601E4FF4317C0CFB001000F12802AA
:1036000008F11200335C01210020FDF737FB032095
:1036100007F008FD4FF0000A32E0019800F080004A
:10362000802825D100251BE008F11300284406213D
:1036300001FB0A00335C601E4FF4317101FB005046
:1036400029301C2101FB0700062101FB0A02012190
:103650000020FDF713FB032007F0E4FC681C85B293
:10366000062D00E00FE0DFDB0498401CC0B20490A0
:1036700001984006000E01900AF1010000F0FF0AD7
:10368000BAF1040FC9DB4FF6FF71039801EA40005D
:103690000390049800EB4000042101EB40004044FB
:1036A00000F0FF0800200490781CC7B2042FFFF63A
:1036B00055AF06E0601CC4B20BF101008442FFF676
:1036C000FEAE00BF00E000BF00BF30460699FFF726
:1036D00034FA07B0BDE8F08F2DE9F34F83B005460B
:1036E0004FF0000B00200290074840780190E87AE4
:1036F000502851D0512879D0522878D1287BF8B958
:10370000002719E016060020770000202100002085
:1037100001240DE04FF4317000FB0742002301212A
:103720001846FDF7ABFA032007F07CFC601CC4B21E
:10373000032CEFDB781CC7B201988742E8DB2AE054
:10374000002725E04FF001081BE007F10D00285C81
:10375000404512D101240DE04FF4317000FB0742C7
:10376000002301211846FDF789FA032007F05AFCCF
:10377000601CC4B2032CEFDB07E008F1010000F08D
:10378000FF080198401C8045DFDB00BF781CC7B2F2
:10379000287BB842D6DC4DE10027AEE04FF00108AF
:1037A0007FE006F10D00285C404576D1002419E049
:1037B000A8F101004FF4317101FB0042012100200A
:1037C000FDF7F7F90DF80400032007F02BFC1DF8B6
:1037D000040006F10E012144695C08430DF8040061
:1037E000601CC4B2022CE3DB002413E08AE020E179
:1037F0001DF80430A8F1010040F2BD2101FB00409A
:10380000421C01210020FDF739FA032007F00AFCD1
:10381000601CC4B2022CEBDB06F10F00295C401ED9
:10382000285C01EB00201FFA80FA4FF000092FE01E
:103830000AF40040B0F5004F22D100241AE006F14E
:1038400010004FF0020C02990CFB010020442B5C8D
:10385000A8F1010040F2BD2101FB0040C01C0CFB9F
:10386000090200210120FDF709FA032007F0DAFB25
:10387000601CC4B2022CE2DB0298401CC0B2029071
:103880004FF6FF7000EA4A0A09F1010000F0FF0953
:10389000B9F1040FCCDB08E0FFE708F1010000F00C
:1038A000FF08B8F1510FFFF67CAF00BF06F10F0023
:1038B000295C401E285C01EB00201FFA80FA4FF0C3
:1038C000000910E00AF40040B0F5004F03D10BF1FD
:1038D000010000F0FF0B4FF6FF7000EA4A0A09F101
:1038E000010000F0FF09B9F1040FEBDB4FEA4B00D8
:1038F000C01C3044C6B2781CC7B2287BB8423FF720
:103900004DAF97E000278FE04FF0010860E006F12F
:103910000D00285C404557D1002413E006F10E004D
:1039200020442B5CA8F1010040F2BD2101FB0040C6
:10393000421C01210020FDF7A1F9032007F072FBD2
:10394000601CC4B2022CE9DB06F10F00295C401EAA
:10395000285C01EB00201FFA80FA4FF000092FE0ED
:103960000AF40040B0F5004F22D100241AE006F11D
:1039700010004FF0020C02990CFB010020442B5C5C
:10398000A8F1010040F2BD2101FB0040C01C0CFB6E
:10399000090200210120FDF771F9032007F042FB25
:1039A000601CC4B2022CE2DB0298401CC0B2029040
:1039B0004FF6FF7000EA4A0A09F1010000F0FF0922
:1039C000B9F1040FCCDB07E008F1010000F0FF08BB
:1039D0000198401C80459ADB00BF06F10F00295C6E
:1039E000401E285C01EB00201FFA80FA4FF000090E
:1039F00010E00AF40040B0F5004F03D10BF10100D4
:103A000000F0FF0B4FF6FF7000EA4A0A09F10100CF
:103A100000F0FF09B9F1040FEBDB4FEA4B00C01CCB
:103A20003044C6B2781CC7B2287BB8423FF76CAFAF
:103A300000E000BF00BF28460499FFF77EF805B0FC
:103A4000BDE8F08F2DE9F0410446884600260025A8
:103A5000E07A401EC6B20020FE49885500BF12E041
:103A600005F10C00235C4FF4317106FB01F000F509
:103A70002E70421901210020FDF700F9032007F004
:103A8000D1FA681CC5B2042DEADBE17BA07B01EB17
:103A9000002087B207F48040B0F5804F03D10020AA
:103AA000ED49086002E00120EB49086041462046EC
:103AB000FFF743F8BDE8F0812DE9F05F05468B463E
:103AC0004FF00008E54890F8009090F801A0E87ADF
:103AD00051287DD052287CD1687B112804D0212820
:103AE00014D0312876D15BE000240CE047F65A5020
:103AF0002218002319461846FDF7C0F8032007F0E6
:103B000091FA601CC4B2142CF0DB9AE0287BD8B97F
:103B1000002616E0002410E006EB8600400000F5C9
:103B2000FA406E300219002319461846FDF7A6F830
:103B3000032007F077FA601CC4B20A2CECDB701C7F
:103B4000C6B24E45E6DB2AE0002625E001271CE050
:103B500006F10E00285CB84215D1002410E006EBF7
:103B60008600400000F5FA406E3002190023194625
:103B70001846FDF783F8032007F054FA601CC4B21E
:103B80000A2CECDB05E0781CC7B209F10100874282
:103B9000DEDB00BF701CC6B2287BB042D6DC50E032
:103BA000287B00BB00261BE0002415E006EB860006
:103BB000400000F5FA4000F26E5002190023194649
:103BC0001846FDF75BF8032007F02CFA601C02E0B2
:103BD00039E0CEE034E0C4B20A2CE7DB701CC6B298
:103BE0005645E1DB2BE0002626E001271DE006F12B
:103BF0000E00285CB84216D1002411E006EB8600C6
:103C0000400000F5FA4000F26E50021900231946F8
:103C10001846FDF733F8032007F004FA601CC4B21D
:103C20000A2CEBDB05E0781CC7B20AF101008742E1
:103C3000DDDB00BF701CC6B2287BB042D5DC00E0E3
:103C400000BF00BF96E0687B112804D0212817D060
:103C500031287DD14EE000240DE004F10E002B5CF4
:103C600004F15A0200210846FDF708F8032007F086
:103C7000D9F9601CC4B2A87B401CA042EDDC76E000
:103C8000002633E001272AE008F10E00285CB84244
:103C900023D1002414E008F10F0020442B5C08F12C
:103CA0000E00285C00EB800040006E3002190021FD
:103CB0000846FCF7E3FF032007F0B4F9601CC4B228
:103CC00008F10F00285C401CA042E4DC08F10F0062
:103CD000285C801C00F0FF0805E0781CC7B209F1E1
:103CE00001008742D0DB00BF701CC6B2287BB04207
:103CF000C8DC3CE0002635E001272CE008F10E008E
:103D0000285CB84225D1002415E008F10F002044BA
:103D10002B5C08F10E00285C00EB8000400000F2F4
:103D20006E50021900210846FCF7A8FF032007F097
:103D300079F9601CC4B208F10F00285C401CA04255
:103D4000E3DC08F10F00285C801C00F0FF0806E0AF
:103D50000CE0781CC7B20AF101008742CEDB00BF3D
:103D6000701CC6B2287BB042C6DC00E000BF00BFBA
:103D700000E000BF00BF59462846FEF7DEFEBDE862
:103D8000F09F2DE9F04105460F4600260024E87A11
:103D9000401EC6B200203249885500BF12E004F12F
:103DA0000C002B5C4FF4317106FB01F000F2B320E4
:103DB000021901210020FCF761FF032007F032F90E
:103DC000601CC4B2062CEADB39462846FEF7B5FE75
:103DD000BDE8F08170B505460E460024002021495B
:103DE000087000BF0EE004F10B002B5C4CF2520097
:103DF000221800210846FCF741FF032007F012F9C2
:103E0000601CC4B2022CEEDB31462846FEF795FE5C
:103E100070BD05460E46002400BF0BE004F581721C
:103E2000352300210846FCF729FF032007F0FAF8A4
:103E3000601CC4B2162CF1DB31462846FEF77DFE2D
:103E400003234CF2220200210846FCF717FF03204F
:103E50000AE000003E0000209882404277000020E7
:103E60003A0000200F00002007F0DCF8FEF710FEFB
:103E70002DE9F0470446894600270020FE490870D6
:103E8000217BE07A01EB00201FFA80F800260EE08B
:103E900006F10B00235C4CF240003218002108466A
:103EA000FCF7ECFE032007F0BDF8701CC6B2022E32
:103EB000EEDB002519E008F40040B0F5004F0ED10C
:103EC00007F10D00235C4CF242002A18002108463D
:103ED000FCF7D4FE032007F0A5F8781CC7B24FF614
:103EE000FF7000EA4808681CC5B2102DE3DB4946A4
:103EF0002046FEF722FEBDE8F08770B504460D4669
:103F00000020DE490870E07A112804D021280DD065
:103F1000312821D115E0637B4CF2230200210846B1
:103F2000FCF7ACFE052007F07DF816E0637B40F659
:103F3000234200210846FCF7A1FE052007F072F895
:103F40000BE0637B4CF2230200210846FCF796FE4F
:103F5000052007F067F800E000BF00BF29462046B3
:103F6000FEF7EBFD70BD2DE9F041044688460026C2
:103F70000020C3490870217BE07A01EB002087B262
:103F8000E37A4CF2100200210846FCF777FE03208A
:103F900007F048F8237B4CF2110200210846FCF799
:103FA0006DFE032007F03EF8002519E007F40040FD
:103FB000B0F5004F0ED106F10D00235C4CF212005B
:103FC0002A1800210846FCF759FE032007F02AF8BA
:103FD000701CC6B24FF6FF7000EA4707681CC5B2F6
:103FE000102DE3DB41462046FEF7A7FDBDE8F0813A
:103FF00070B504460D46E07AA2498871207B48716D
:10400000607BC870A07B0871E07B8870207C487062
:10401000607C0870E37A082200210846FCF72EFE37
:10402000052006F0FFFF237B092200210846FCF74C
:1040300025FE052006F0F6FF637B0A2200210846D4
:10404000FCF71CFE052006F0EDFFA37B0B220021F0
:104050000846FCF713FE052006F0E4FFE37B0C2284
:1040600000210846FCF70AFE052006F0DBFF237C52
:104070000D2200210846FCF701FE052006F0D2FFC4
:10408000637C0E2200210846FCF7F8FD052006F0AF
:10409000C9FF7C4805F0FAFF29462046FEF74DFD92
:1040A00070BD30B50B460024774D2C70827B457B6C
:1040B000047B05EB0424A1B20124744D2C7030BDA7
:1040C0002DE9F04105460F460026E87A401EC6B2AB
:1040D00000206F498855002412E004F10C002B5C8D
:1040E0004FF4317106FB01F000F247200219012163
:1040F0000020FCF7C3FD032006F094FF601CC4B24F
:10410000022CEADB012063490870BDE8F0812DE94B
:10411000F34F81B005464FF0000AD1465E4890F853
:1041200000B0E87A51283DD052287DD1287BE8B9EB
:10413000002618E000205949885500240FE04FF46C
:10414000317106FB01F000F2E5120023012118464F
:10415000FCF794FD032006F065FF601CC4B2022C3E
:10416000EDDB701CC6B25E45E4DB1AE00021287B63
:10417000401E4A4A1154002411E0287B401E4FF48F
:10418000317111FB004000F2E512002301211846B5
:10419000FCF774FD032006F045FF601CC4B2022C3E
:1041A000EBDB89E00021287B401E3C4A11540024AF
:1041B0001AE0287B401E4FF4317111FB004000F2E1
:1041C000E51201210020FCF7F4FC0DF804000320A7
:1041D00006F028FF1DF8040004F10D01695C084396
:1041E0000DF80400601CC4B2022CE2DB002412E0D3
:1041F0001DF80430287B401E4FF4317111FB004044
:1042000000F2E51201210020FCF738FD032006F042
:1042100009FF601CC4B2022CEADBA97B687B01EBBE
:1042200000201FFA80F800E045E0002740E008F495
:104230000040B0F5004F35D1002418E04FF4317143
:104240000AFB01F000F2E7102044062101FB0702FF
:1042500009EB490040000F3020442B5C0121002075
:10426000FCF70CFD032006F0DDFE601CC4B2062C3A
:10427000E4DB09F1010013E00D0000200B00002039
:104280000C0000206C0000201C0000205A000020C0
:104290001800002059000020770000201D00002099
:1042A00000F0FF094FF6FF7000EA4808781CC7B21B
:1042B000082FBCDB00E000BF00BF28460299FEF7D4
:1042C0003CFCBDE8FE8F2DE9F34F83B007464FF06D
:1042D0000008C34600200290FA4800780190F87A5E
:1042E00051287DD052286DD1387B002838D1002646
:1042F00025E00020F44988550120F449885501241F
:104300000DE04FF4317000FB0642002301211846F6
:10431000FCF7B4FC032006F085FE601CC4B2032C3D
:10432000EFDB4FF4317006FB00F2EE230121002099
:10433000FCF7A4FC032006F075FE701CC6B20198C1
:104340008642D6DB00234CF2520219461846FCF78F
:1043500095FC032006F066FE0020DA4908703EE076
:10436000002639E0012530E006F10D00385CA84256
:1043700029D10021681ED44A11540121D34A115475
:1043800001240EE0681E4FF4317101FB004200234E
:1043900001211846FCF772FC032006F043FE601C66
:1043A000C4B2032CEEDB681E4FF4317100FB01F246
:1043B000EE2301210020FCF761FC032006F032FE11
:1043C00007E00DE0B2E0681CC5B20198401C8542D0
:1043D000CADB00BF701CC6B2387BB042C2DCA6E0AC
:1043E000002692E008F10D003D5C0021681EB64AEF
:1043F00011540121B54A11544FF4317110FB01F2EF
:10440000E22301210020FCF739FC032006F00AFE1C
:10441000002412E008F10E0020443B5C681E4FF4BB
:10442000317101FB0040421C01210020FCF726FCF9
:10443000032006F0F7FD601CC4B2022CEADB08F191
:104440000F00395C401E385C01EB00201FFA80FA37
:104450004FF000092EE00AF40040B0F5004F21D1E2
:10446000002419E008F110004FF0020C02990CFB37
:10447000010020443B5C681E4FF4317101FB004099
:10448000C01C0CFB090201210020FCF7F7FB0320F4
:1044900006F0C8FD601CC4B2022CE3DB0298401C8D
:1044A000C0B202904FF6FF7000EA4A0A09F101001B
:1044B00000F0FF09B9F1040FCDDB08F10F00395C02
:1044C000401E385C01EB00201FFA80FA4FF0000913
:1044D00010E00AF40040B0F5004F03D10BF10100E9
:1044E00000F0FF0B4FF6FF7000EA4A0A09F10100E5
:1044F00000F0FF09B9F1040FEBDB4FEA4B00C01CE1
:10450000404400F0FF08701CC6B2387BB0423FF751
:1045100069AF2B464CF2520200210846FCF7AEFB75
:10452000032006F07FFD6748057000E000BF00BF74
:1045300038460499FEF701FB05B0BDE8F08F70B571
:1045400004460D46E37A4CF2040200210846FCF7CB
:1045500095FB032006F066FD237B4CF2050200214B
:104560000846FCF78BFB032006F05CFD637B4CF2F6
:10457000060200210846FCF781FB032006F052FDED
:10458000A37B4CF2070200210846FCF777FB0320CF
:1045900006F048FDE37B4CF2080200210846FCF7D8
:1045A0006DFB032006F03EFD237C4CF20902002146
:1045B0000846FCF763FB032006F034FD637C4CF2F5
:1045C0000A0200210846FCF759FB032006F02AFDE9
:1045D000A37C4CF20B0200210846FCF74FFB0320A2
:1045E00006F020FDE37C4CF20C0200210846FCF7AB
:1045F00045FB032006F016FD237D4CF20D02002141
:104600000846FCF73BFB032006F00CFD0020304978
:10461000087025234FF2010200210846FCF72EFB0B
:10462000032006F0FFFC29462046FEF786FA70BDFF
:1046300070B504460D46E37A4FF440420021084627
:10464000FCF71CFB052006F0EDFC237B4CF201027D
:1046500000210846FCF712FB052006F0E3FC637B13
:104660004CF2020200210846FCF708FB052006F088
:10467000D9FCA37B4CF2030200210846FCF7FEFAAA
:10468000052006F0CFFC00201249087025234FF4C6
:10469000704200210846FCF7F1FA052006F0C2FC42
:1046A00029462046FEF749FA70BD2DE9F047064637
:1046B00089464FF000081420074981F8C9000024FA
:1046C00011E0000077000020100000203F000020D3
:1046D0000900002008000020E8010020315DFE48AC
:1046E0000155601CC4B20B2CF8DBD021FA486438A9
:1046F00080F86C10F07A401E00F0FF08002513E0EF
:104700004FF4B77108FB01F06630421900210846EA
:10471000FCF74FFA2146621CD4B2EF4A50540320F2
:1047200006F080FC681CC5B2062DE9DBEA48643857
:1047300090F8C900801EC1B2E748FEF7E3F90746CA
:104740003A0A2046611CCCB2E3490A540846075590
:10475000643890F8C910643006F0B0F8BDE8F0870E
:104760002DE9F04705468A464FF00009002600244F
:1047700004E0295DD8480155601CC4B20B2CF8DB5D
:10478000D021D548643880F86C10E87AD34949784C
:10479000884205DDEE2251462846FEF767FC9EE082
:1047A000E87A002842D0EA7A2146601CC4B2CA489E
:1047B0004254002627E006F10C00285C401E00F061
:1047C000FF0906F10C002A5C2046611CCCB2C249EC
:1047D0000A54002713E04FF4B77000FB097000F192
:1047E000430200210846FCF7E4F92146621CD4B2DA
:1047F000B94A5054032006F015FC781CC7B2032FA9
:10480000E9DB701CC6B2E87AB042D4DCE87A8000FA
:104810000E30B149643981F8C900E87A8000C01DC2
:10482000C1B2AD48643880F86A103EE0AB484278C7
:104830002046611CCCB2A8490A54002620E0701C16
:10484000C2B22046611CCCB2A3490A54002713E02F
:104850004FF4B77000FB097000F1430200210846D5
:10486000FCF7A7F92146621CD4B29B4A505403209E
:1048700006F0D8FB781CC7B2032FE9DB701CC6B268
:1048800096484078B042DADC9448407880000E3098
:104890009149643981F8C900904840788000C01D72
:1048A000C1B28D48643880F86A108B48643890F83B
:1048B000C900801EC1B28848FEF724F980464FEA3D
:1048C00018222046611CCCB283490A54084600F8DD
:1048D0000480643890F8C910643005F0EFFFBDE83B
:1048E000F0872DE9F047054688464FF0000914206F
:1048F0007949643981F8C900002404E0295D7648CB
:104900000155601CC4B20B2CF8DBD021724864380E
:1049100080F86C10E87A401E00F0FF09E87A6F49D1
:104920004978884205DDEE2241462846FEF79EFB87
:104930002FE0002613E04FF4B77109FB01F03D3082
:10494000821900210846FCF734F92146621CD4B2D2
:10495000614A5054032006F065FB701CC6B2062E57
:10496000E9DB5D48643890F8C900801EC1B25A483E
:10497000FEF7C8F807463A0A2046611CCCB25649F1
:104980000A5408460755643890F8C910643005F099
:1049900095FFBDE8F0872DE9F047054689460026DA
:1049A00010204D49643981F8C9004C4890F80080C6
:1049B000002404E0295D48480155601CC4B20C2C59
:1049C000F8DBD0214448643880F86C10E87A401E47
:1049D00000F0FF08002614E04FF4317108FB01F0ED
:1049E00000F24E20821901210020FCF7E2F8214656
:1049F000621CD4B2384A5054032006F013FB701CDA
:104A0000C6B2022EE8DB3448643890F8C900801E34
:104A1000C1B23148FEF776F807463A0A2046611CD3
:104A2000CCB22D490A5408460755643890F8C9108D
:104A3000643005F043FFBDE8F0870122284B1A706F
:104A400070472DE9F04F85B081460026B246002020
:104A50000290224890F801B0002405E019F80410F3
:104A60001D480155601CC4B20B2CF7DBD0211A483D
:104A7000643880F86C10002799F80B00002866D085
:104A800099F80B202046611CCCB213490A54781CBB
:104A900087B24FF0000A55E00AF10C0019F8000047
:104AA000401EC6B20AF10C0019F800202046611C15
:104AB000CCB209490A547F1CC6EBC60000EB80004B
:104AC000084911F810202046611CCCB202490A5452
:104AD000781C87B208E000004C020020770000201C
:104AE0005B000020640B0020C6EBC60000EB8000DA
:104AF000FE4911F81000EE2820D000251CE006EB3E
:104B00008600FB4901EB8000425D2046611CCCB26F
:104B1000F8490A54781C87B206EB8600F44901EB89
:104B20008000401D425D2046611CCCB2F1490A5410
:104B3000781C87B2681CC5B2052DE0DB0AF10100C4
:104B400000F0FF0A99F80B005045A5DC5DE0204617
:104B5000611CCCB2E74901F800B0781C87B24FF075
:104B600000084BE0C8EBC80000EB8000DF4911F8FB
:104B70001000EE283ED00298401CC0B2029008F10E
:104B80000100C2B22046611CCCB2DA490A547F1C33
:104B9000C8EBC80000EB8000D44911F81020204673
:104BA000611CCCB2D3490A54781C87B2032006F0AA
:104BB00039FA00251CE006EB8600CD4901EB8000A8
:104BC000425D2046611CCCB2CA490A54781C87B2A7
:104BD00006EB8600C64901EB8000401D425D204681
:104BE000611CCCB2C3490A54781C87B2681CC5B298
:104BF000052DE0DB08F1010000F0FF08D845B1DB2E
:104C0000BC496439029881F86F00B81DC1B2B94837
:104C1000643880F86A1007F10D00B649643981F8EC
:104C2000C900084690F8C900801EC1B2B148FDF71E
:104C300069FF07463A0A2046611CCCB2AD490A54C6
:104C400008460755643890F8C910643005F036FE00
:104C500000263BE0C6EBC60000EB8000A34911F83C
:104C60001000EE2830D000252CE04FF4B77106FB81
:104C700001F0401C022101FB050206EB86009C4965
:104C800001EB8000435D00210846FBF7F7FF05209C
:104C900006F0C8F94FF4B77106FB01F0801C022141
:104CA00001FB050206EB8600914901EB8000401DE7
:104CB000435D00210846FBF7E1FF052006F0B2F94D
:104CC000681CC5B2052DD0DB701CC6B25E45C1DBC9
:104CD000002405E019F8041086480155601CC4B290
:104CE0000C2CF7DB60218348643880F86D100021BC
:104CF00080F86F1000261BE1002514E106EB06107A
:104D000000EB86107C4901EB40004030405D06EB33
:104D1000061101EB8611784A02EB41015031495DE1
:104D2000084300287ED17548805D401C7349885532
:104D30000846805D0228F5D1002088556D4864380A
:104D400090F86F00401CC1B26A48643880F86F1058
:104D50002046611CCCB267490E540020049016E036
:104D60004FF43171049801FB080201210020FBF788
:104D700020FF2146621CD4B25E4A5054781C87B290
:104D8000032006F04FF90498401CC0B20490049828
:104D90000328E5DB4FF4317108FB01F0421C0121CF
:104DA0000020FBF706FF0190032006F03BF94FF4CB
:104DB000317108FB01F0821C01210020FBF7F9FE94
:104DC0000090032006F02EF9DDE9001001EB002031
:104DD00080B2039008EB081101EB8811464A02EB00
:104DE0004101B1F8A000C11700EB1161C1F3072325
:104DF0002146621CD4B23F4A53547F1C08EB081171
:104E000001EB88113C4A02EB4101B1F8A000C11747
:104E100000EB11610912A0EB0121CBB22146621C0B
:104E2000D4B200E07AE0334A5354781C87B20025AC
:104E300072E0039800F40040B0F5004F64D108EB35
:104E4000081000EB88102C4901EB4000425D204621
:104E5000611CCCB227490A547F1C08EB081000EBF8
:104E60008810254901EB40001030425D2046611C4E
:104E7000CCB220490A547F1C08EB081000EB8810C4
:104E80001D4901EB40006030425D2046611CCCB200
:104E900018490A547F1C08EB081000EB88101649CB
:104EA00001EB40007030425D2046611CCCB21149DC
:104EB0000A547F1C08EB081000EB88100E4901EB28
:104EC00040004030425D2046611CCCB209490A5482
:104ED0007F1C08EB081000EB8810074901EB40002D
:104EE0005030425D2046611CCCB209E0640B0020CA
:104EF000140B00204C0200207E0800202801002016
:104F0000FE490A54781C87B24FF6FF71039801EAF4
:104F100040000390681CC5B2042D8ADB0020F849CC
:104F20008855681CC5B2042DFFF6E8AE701CC6B2E9
:104F30005E45FFF6E1AE05B0BDE8F08F2DE9F34F19
:104F400083B000BF4FF00009002405E00398015D25
:104F5000EA480155601CC4B20C2CF7DBD021E748AD
:104F6000643880F86C1001250398C07A401EC7B2DF
:104F70004FF4B77017FB00F000F16C0200210846F7
:104F8000FBF717FE8246032006F04CF84FF4B7708B
:104F900017FB00F000F16D0200210846FBF709FE47
:104FA00000EB0A2086B2032006F03CF82046611C84
:104FB000CCB2D24901F800A06D1CF11706EB1161CB
:104FC0000912A6EB0121CBB22146621CD4B2CB4A16
:104FD00053546D1C4FF000087FE006F40040B0F51C
:104FE000004F72D1002001901CE04FF4B77107FB15
:104FF00001F06E30202101FB080101980A18002100
:105000000846FBF7D6FD01462046621CD4B2BB4AD7
:105010001154032006F006F8681C85B20198401C64
:10502000C0B2019001980B28DFDB4FF4B77107FB8A
:1050300001F07930202101FB080200210846FBF72E
:10504000B8FD8346032005F0EDFF2046611CCCB27D
:10505000AA4901F800B0681C85B24FF0000931E0A0
:105060000BF08000802825D1002002901FE04FF433
:10507000B77107FB01F07A30202101FB0800052100
:1050800001FB090102980A1801210020FBF791FD9C
:1050900001462046621CD4B2984A1154032005F000
:1050A000C1FF681C85B20298401CC0B202900298F1
:1050B0000528DCDB4FEA4B604FEA106B09F1010079
:1050C00000F0FF09B9F1040FCADB4FF6FF7000EAE8
:1050D000460608F1010000F0FF08B8F1080FFFF6DE
:1050E0007CAF05F10D008549643981F8C900A81D20
:1050F000C1B28248643880F86A1090F8C900801EF6
:10510000C1B27E48FDF7FEFC05462A0A2046611C16
:10511000CCB27A490A54084605550025643890F8FF
:10512000C910643005F0CAFB05B0BDE8F08F2DE969
:10513000F04F85B082460025002003900290714810
:1051400040780190002405E01AF804106B480155DE
:10515000601CC4B20B2CF7DBD0216848643880F89F
:105160006C1000279AF80B0000287DD09AF80B20CD
:105170002046611CCCB261490A54781C87B20020D9
:10518000039083E003980C301AF80000401EC5B26B
:1051900003980C301AF800202046611CCCB2574905
:1051A0000A547F1CC5EBC50000EB8000564911F87E
:1051B00010202046611CCCB250490A54781C87B29A
:1051C000C5EBC50000EB80004F4911F81000EE2838
:1051D00058D00020049019E04FF4B771049801FBF7
:1051E000050000F1440200210846FBF7E2FC0146FD
:1051F0002046621CD4B2414A1154781C87B2032065
:1052000005F010FF0498401CC0B2049004980228D6
:10521000E2DB601E39490A5CA01E085C02EB00203C
:105220001FFA80F900262BE009F40040B0F5004F8A
:1052300020D1C5EBC50000EB8000334901EB4000F5
:10524000801C825D2046611CCCB22C490A547F1C14
:10525000C5EBC50000EB80002B4901EB400012308C
:10526000825D2046611C00E017E0CCB223490A545D
:10527000781C87B24FF6FF7000EA4909701CC6B26D
:10528000102ED1DB0398401CC0B203909AF80B108B
:10529000039881423FF776AF97E02046621CD4B274
:1052A000164A01991154781C87B24FF0000883E028
:1052B000C8EBC80000EB8000134911F81000EE287D
:1052C00076D00298401CC0B2029008F10100C2B230
:1052D0002046611CCCB209490A547F1CC8EBC800A7
:1052E00000EB8000084911F810202046611CCCB268
:1052F00002490A547F1CC5EBC50007E04C020020A0
:105300002801002077000020640B002000EB8000C3
:10531000FE4901EB400090F822B0C5EBC50000EB60
:10532000800001EB400090F8230000902046611CB3
:10533000CCB2F74901F800B07F1C2146621CD4B200
:10534000F34A00985054781C87B2009800EB0B2069
:105350001FFA80F9002629E009F40040B0F5004F5B
:105360001ED1C5EBC50000EB8000E84901EB400011
:10537000801C825D2046611CCCB2E5490A547F1C2A
:10538000C5EBC50000EB8000E04901EB40001230A6
:10539000825D2046611CCCB2DD490A54781C87B27C
:1053A0004FF6FF7000EA4909701CC6B2102ED3DB1D
:1053B00008F1010000F0FF0801988045FFF678AF82
:1053C000D3496439029881F86F00B81DC1B2D04842
:1053D000643880F86A1007F10D00CD49643981F80E
:1053E000C900084690F8C900801EC1B2C848FDF740
:1053F00089FB07463A0A2046611CCCB2C4490A54CC
:1054000008460755643890F8C910643005F056FA1C
:10541000002570E0C5EBC50000EB8000BB4911F82A
:105420001000EE2865D0C5EBC50000EB800001EB55
:10543000400090F82310C5EBC50000EB8000B34A94
:1054400002EB400090F8220001EB00201FFA80F9E7
:10545000C5EBC50000EB8000114611F810304FF489
:10546000B77005FB00F200210846FBF707FC03209C
:1054700005F0D8FD00263AE009F40040B0F5004FF1
:105480002FD14FF4B77105FB01F04630022101FB2B
:105490000602C5EBC50000EB80009C4901EB400013
:1054A000801C835D00210846FBF7E8FB032005F024
:1054B000B9FD4FF4B77105FB01F04730022101FB44
:1054C0000602C5EBC50000EB8000904901EB4000EF
:1054D0001230835D00210846FBF7D0FB032005F066
:1054E000A1FD4FF6FF7000EA4909701CC6B2102EEC
:1054F000C2DB681CC5B2019885428BDB002405E045
:105500001AF8041082480155601CC4B20C2CF7DB59
:1055100060217F48643880F86D10002180F86F109A
:10552000002516E100260FE105EB051000EB8510C4
:10553000784901EB40004030805D05EB051101EB3F
:105540008511744A02EB41015031895D08430028FE
:105550007ED17148405D401C6F4948550846405D0A
:105560000228F5D1002048556948643890F86F004A
:10557000401CC1B26648643880F86F102046611C38
:10558000CCB263490D540020049017E04FF4317100
:10559000049801FB080201210020FBF70AFB0146E9
:1055A0002046621CD4B25A4A1154781C87B2032098
:1055B00005F038FD0498401CC0B2049004980328FC
:1055C000E4DB4FF4317108FB01F0421C01210020A3
:1055D000FBF7EFFA8346032005F024FD4FF4317109
:1055E00008FB01F0821C01210020FBF7E2FA009089
:1055F000032005F017FD009901EB0B201FFA80F93D
:1056000008EB081101EB8811424A02EB4101B1F8A5
:10561000A000C11700EB1161C1F307232146621CF2
:10562000D4B23B4A53547F1C08EB081101EB88119C
:10563000384A02EB4101B1F8A000C11700EB11613B
:105640000912A0EB0121CBB22146621CD4B200E0CA
:1056500075E02F4A5354781C87B200266DE009F498
:105660000040B0F5004F62D108EB081000EB881045
:10567000284901EB4000825D2046611CCCB22449E0
:105680000A547F1C08EB081000EB8810214901EB3D
:1056900040001030825D2046611CCCB21C490A5487
:1056A0007F1C08EB081000EB88101A4901EB400042
:1056B0006030825D2046611CCCB215490A547F1CC3
:1056C00008EB081000EB8810124901EB4000703025
:1056D000825D2046611CCCB20D490A547F1C08EB48
:1056E000081000EB88100B4901EB40004030825D50
:1056F0002046611CCCB206490A547F1C08EB0810F6
:1057000000EB8810034901EB400007E0640B002028
:105710004C0200207E080020280100205030825DCD
:105720002046611CCCB2FE490A54781C87B24FF661
:10573000FF7000EA4909701CC6B2042E8FDB0020FE
:10574000F8494855701CC6B2042EFFF6EDAE681C31
:10575000C5B201988542FFF6E5AE05B0BDE8F08F11
:105760002DE9F34F81B000BF4FF00009002405E0A0
:105770000198015DEA480155601CC4B20C2CF7DBAE
:10578000D021E748643880F86C1000250198C07A71
:10579000401EC6B24FF4317016FB00F000F1230238
:1057A00001210020FBF705FA8246032005F03AFCB0
:1057B0004FF4317016FB00F000F1240201210020AB
:1057C000FBF7F7F900EB0A201FFA80F8032005F039
:1057D00029FC2046611CCCB2D14901F800A06D1C07
:1057E0004FEAE87108EB11610912A8EB0121CBB275
:1057F0002146621CD4B2CA4A53546D1C00279CE057
:1058000008F40040B0F5004F7ED14FF4317106FB33
:1058100001F025301C2101FB070201210020FBF7CC
:10582000C8F901462046621CD4B2BD4A1154032077
:1058300005F0F8FB6D1C4FF4317106FB01F02630CA
:105840001C2101FB070201210020FBF7B2F92146D0
:10585000621CD4B2B24A5054032005F0E3FB6D1C25
:105860004FF4317106FB01F027301C2101FB0702C8
:1058700001210020FBF79DF901462046621CD4B2AD
:10588000A74A1154032005F0CDFB6D1C4FF4317174
:1058900006FB01F028301C2101FB0702012100203A
:1058A000FBF787F98346032005F0BCFB2046611C0B
:1058B000CCB29B4901F800B0681C85B24FF00009DA
:1058C00032E00BF08000802826D10020009020E0FC
:1058D0004FF4317106FB01F029301C2101FB070058
:1058E000062101FB090100980A1801210020FBF79D
:1058F00060F92146621CD4B2894A5054032005F055
:1059000091FB681C85B200E011E00098401CC0B219
:10591000009000980628DBDB4FEA4B604FEA106BE3
:1059200009F1010000F0FF09B9F1020FC9DB4FF6E0
:10593000FF7000EA4808781CC7B2042FFFF660AF7A
:1059400005F10E007649643981F8C900E81DC1B23D
:105950007348643880F86A1090F8C900801EC1B29C
:105960006F48FDF7CFF805462A0A2046611CCCB2E5
:105970006B490A54084605550025643890F8C9104B
:10598000643004F09BFFBDE8FE8F2DE9F047074629
:1059900089460026002404E0395D61480155601CF9
:1059A000C4B20C2CF8DBD0215D48643880F86C1050
:1059B000F87A5D490978884205DDEE224946384685
:1059C000FDF754FB6BE0F87A401EC6B206EBC6004A
:1059D000564901EB8000827C2046611CCCB25049C4
:1059E0000A5406EBC600514901EB8000C27C2046F8
:1059F000611CCCB24A490A5406EBC6004B4931F847
:105A0000200040B31A204649643981F8C9001321A7
:105A10004348643880F86A10002519E006EBC60098
:105A2000424901EB80001430425D2046611CCCB23B
:105A30003B490A5406EBC6003C4901EB80001C3090
:105A4000425D2046611CCCB235490A54681CC5B27F
:105A5000052DE3DB09E010203149643981F8C900E4
:105A600009212F48643880F86A102D48643890F86E
:105A7000C900801EC1B22A48FDF744F880464FEAAB
:105A800018222046611CCCB225490A54084600F869
:105A90000480643890F8C910643004F00FFFBDE84A
:105AA000F0872DE9F047054688464FF0000914209D
:105AB0001B49643981F8C900002404E0295D1848B5
:105AC0000155601CC4B20C2CF8DBD021144864389A
:105AD00080F86C100D2180F86A10E87A1249097874
